{
  "contractName": "Empty",
  "abi": [
    {
      "inputs": [],
      "payable": false,
      "stateMutability": "nonpayable",
      "type": "constructor"
    },
    {
      "payable": true,
      "stateMutability": "payable",
      "type": "fallback"
    },
    {
      "constant": false,
      "inputs": [
        {
          "name": "receiver",
          "type": "address"
        }
      ],
      "name": "give_away",
      "outputs": [],
      "payable": false,
      "stateMutability": "nonpayable",
      "type": "function"
    }
  ],
  "bytecode": "0x608060405234801561001057600080fd5b5060e18061001f6000396000f3fe608060405260043610601c5760003560e01c806305d74c3814601e575b005b348015602957600080fd5b50606960048036036020811015603e57600080fd5b81019080803573ffffffffffffffffffffffffffffffffffffffff169060200190929190505050606b565b005b8073ffffffffffffffffffffffffffffffffffffffff166108fc60019081150290604051600060405180830381858888f1935050505015801560b1573d6000803e3d6000fd5b505056fea165627a7a723058207322cce2f8a48246a13d70fcb85a15c33b4a426349447df288ee1dbc06a06b420029",
  "source": "pragma solidity >=0.4.25 <0.6.0;\n\n//contract Htlc {\n//    constructor() public {\n//\n//    }\n//}\n\ncontract Empty {\n    constructor() public {}\n\n    function () external payable {}\n\n    function give_away(address payable receiver) public {\n        receiver.transfer(1);\n    }\n}",
  "sourcePath": "/Users/evgeniyscherbina/MetaCoin/contracts/Htlc.sol",
  "compiler": {
    "name": "solc",
    "version": "0.5.8+commit.23d335f2.Emscripten.clang"
  },
  "schemaVersion": "3.0.11",
  "updatedAt": "2019-07-25T09:25:04.060Z",
  "devdoc": {
    "methods": {}
  },
  "userdoc": {
    "methods": {}
  }
}