{
  "contractName": "FakeMetaCoin",
  "abi": [
    {
      "constant": false,
      "inputs": [
        {
          "name": "rHash",
          "type": "bytes32"
        },
        {
          "name": "amount",
          "type": "uint256"
        },
        {
          "name": "htlcSuccessAddress",
          "type": "address"
        }
      ],
      "name": "fakeCreateHtlc",
      "outputs": [
        {
          "name": "sufficient",
          "type": "bool"
        }
      ],
      "payable": false,
      "stateMutability": "nonpayable",
      "type": "function"
    }
  ],
  "bytecode": "0x608060405234801561001057600080fd5b5060d38061001f6000396000f3fe6080604052348015600f57600080fd5b506004361060285760003560e01c8063ad217ea314602d575b600080fd5b608060048036036060811015604157600080fd5b810190808035906020019092919080359060200190929190803573ffffffffffffffffffffffffffffffffffffffff169060200190929190505050609a565b604051808215151515815260200191505060405180910390f35b600060019050939250505056fea165627a7a7230582053f86004a5dbeba76ff14e9981a8cdfdc93920b84e8df10688ca945991365eea0029",
  "source": "pragma solidity >=0.4.25 <0.6.0;\n\nimport \"./ConvertLib.sol\";\n\n// This is just a simple example of a coin-like contract.\n// It is not standards compatible and cannot be expected to talk to other\n// coin/token contracts. If you want to create a standards-compliant\n// token, see: https://github.com/ConsenSys/Tokens. Cheers!\n\ncontract MetaCoin {\n\tstruct Htlc {\n\t\tbytes32 rHash;\n\t\tuint amount;\n\t\taddress htlcSuccessAddress;\n\t\taddress htlcTimeoutAddress;\n\t}\n\n\tmapping (address => uint) balances;\n\n\tHtlc htlc;\n\n\tevent Transfer(address indexed _from, address indexed _to, uint256 _value);\n\n\tconstructor() public {\n\t\tbalances[tx.origin] = 10000;\n\t}\n\n\tfunction sendCoin(address receiver, uint amount) public returns(bool sufficient) {\n\t\tif (balances[msg.sender] < amount) return false;\n\t\tbalances[msg.sender] -= amount;\n\t\tbalances[receiver] += amount;\n\t\temit Transfer(msg.sender, receiver, amount);\n\t\treturn true;\n\t}\n\n\tfunction getBalanceInEth(address addr) public view returns(uint){\n\t\treturn ConvertLib.convert(getBalance(addr),2);\n\t}\n\n\tfunction getBalance(address addr) public view returns(uint) {\n\t\treturn balances[addr];\n\t}\n\n\tfunction createHtlc(bytes32 rHash, uint amount, address htlcSuccessAddress) public returns(bool sufficient) {\n\t\tif (balances[msg.sender] < amount) return false;\n\t\tbalances[msg.sender] -= amount;\n\n\t\thtlc.rHash = rHash;\n\t\thtlc.amount = amount;\n\t\thtlc.htlcSuccessAddress = htlcSuccessAddress;\n\t\thtlc.htlcTimeoutAddress = msg.sender;\n\n\t\treturn true;\n\t}\n\n\tfunction htlcSuccess(bytes memory rPreImage) public returns(bool success) {\n\t\tbytes32 calcRHash = sha256(rPreImage);\n\t\tif (calcRHash != htlc.rHash) {\n\t\t\treturn false;\n\t\t}\n\n\t\tbalances[htlc.htlcSuccessAddress] += htlc.amount;\n\n\t\tdeleteHtlc();\n\t\treturn true;\n\t}\n\n\tfunction htlcTimeout() public {\n\t\tbalances[htlc.htlcTimeoutAddress] += htlc.amount;\n\n\t\tdeleteHtlc();\n\t}\n\n\tfunction deleteHtlc() private {\n\t\tdelete htlc.rHash;\n\t\tdelete htlc.amount;\n\t\tdelete htlc.htlcSuccessAddress;\n\t\tdelete htlc.htlcTimeoutAddress;\n\t}\n}\n\ncontract FakeMetaCoin {\n\tfunction fakeCreateHtlc(bytes32 rHash, uint amount, address htlcSuccessAddress) public returns(bool sufficient) {\n\t\treturn true;\n\t}\n}",
  "sourcePath": "/Users/evgeniyscherbina/MetaCoin/contracts/MetaCoin.sol",
  "compiler": {
    "name": "solc",
    "version": "0.5.8+commit.23d335f2.Emscripten.clang"
  },
  "schemaVersion": "3.0.11",
  "updatedAt": "2019-07-25T10:14:50.405Z",
  "devdoc": {
    "methods": {}
  },
  "userdoc": {
    "methods": {}
  }
}