{
  "contractName": "MetaCoin",
  "abi": [
    {
      "inputs": [],
      "payable": false,
      "stateMutability": "nonpayable",
      "type": "constructor"
    },
    {
      "anonymous": false,
      "inputs": [
        {
          "indexed": true,
          "name": "_from",
          "type": "address"
        },
        {
          "indexed": true,
          "name": "_to",
          "type": "address"
        },
        {
          "indexed": false,
          "name": "_value",
          "type": "uint256"
        }
      ],
      "name": "Transfer",
      "type": "event"
    },
    {
      "constant": false,
      "inputs": [
        {
          "name": "receiver",
          "type": "address"
        },
        {
          "name": "amount",
          "type": "uint256"
        }
      ],
      "name": "sendCoin",
      "outputs": [
        {
          "name": "sufficient",
          "type": "bool"
        }
      ],
      "payable": false,
      "stateMutability": "nonpayable",
      "type": "function"
    },
    {
      "constant": true,
      "inputs": [
        {
          "name": "addr",
          "type": "address"
        }
      ],
      "name": "getBalanceInEth",
      "outputs": [
        {
          "name": "",
          "type": "uint256"
        }
      ],
      "payable": false,
      "stateMutability": "view",
      "type": "function"
    },
    {
      "constant": true,
      "inputs": [
        {
          "name": "addr",
          "type": "address"
        }
      ],
      "name": "getBalance",
      "outputs": [
        {
          "name": "",
          "type": "uint256"
        }
      ],
      "payable": false,
      "stateMutability": "view",
      "type": "function"
    },
    {
      "constant": false,
      "inputs": [
        {
          "name": "rHash",
          "type": "bytes32"
        },
        {
          "name": "amount",
          "type": "uint256"
        },
        {
          "name": "htlcSuccessAddress",
          "type": "address"
        }
      ],
      "name": "createHtlc",
      "outputs": [
        {
          "name": "sufficient",
          "type": "bool"
        }
      ],
      "payable": false,
      "stateMutability": "nonpayable",
      "type": "function"
    },
    {
      "constant": false,
      "inputs": [
        {
          "name": "rPreImage",
          "type": "bytes"
        }
      ],
      "name": "htlcSuccess",
      "outputs": [
        {
          "name": "success",
          "type": "bool"
        }
      ],
      "payable": false,
      "stateMutability": "nonpayable",
      "type": "function"
    },
    {
      "constant": false,
      "inputs": [],
      "name": "htlcTimeout",
      "outputs": [],
      "payable": false,
      "stateMutability": "nonpayable",
      "type": "function"
    }
  ],
  "bytecode": "0x608060405234801561001057600080fd5b506127106000803273ffffffffffffffffffffffffffffffffffffffff1673ffffffffffffffffffffffffffffffffffffffff168152602001908152602001600020819055506108a2806100656000396000f3fe608060405234801561001057600080fd5b50600436106100625760003560e01c8063282245731461006757806374648c09146100715780637bd703e8146100e157806390b98a1114610139578063a7f479f41461019f578063f8b2cb4f14610272575b600080fd5b61006f6102ca565b005b6100c76004803603606081101561008757600080fd5b810190808035906020019092919080359060200190929190803573ffffffffffffffffffffffffffffffffffffffff169060200190929190505050610349565b604051808215151515815260200191505060405180910390f35b610123600480360360208110156100f757600080fd5b81019080803573ffffffffffffffffffffffffffffffffffffffff16906020019092919050505061048d565b6040518082815260200191505060405180910390f35b6101856004803603604081101561014f57600080fd5b81019080803573ffffffffffffffffffffffffffffffffffffffff16906020019092919080359060200190929190505050610531565b604051808215151515815260200191505060405180910390f35b610258600480360360208110156101b557600080fd5b81019080803590602001906401000000008111156101d257600080fd5b8201836020820111156101e457600080fd5b8035906020019184600183028401116401000000008311171561020657600080fd5b91908080601f016020809104026020016040519081016040528093929190818152602001838380828437600081840152601f19601f82011690508083019250505050505050919291929050505061068a565b604051808215151515815260200191505060405180910390f35b6102b46004803603602081101561028857600080fd5b81019080803573ffffffffffffffffffffffffffffffffffffffff1690602001909291905050506107cb565b6040518082815260200191505060405180910390f35b6001800154600080600160030160009054906101000a900473ffffffffffffffffffffffffffffffffffffffff1673ffffffffffffffffffffffffffffffffffffffff1673ffffffffffffffffffffffffffffffffffffffff16815260200190815260200160002060008282540192505081905550610347610813565b565b6000826000803373ffffffffffffffffffffffffffffffffffffffff1673ffffffffffffffffffffffffffffffffffffffff16815260200190815260200160002054101561039a5760009050610486565b826000803373ffffffffffffffffffffffffffffffffffffffff1673ffffffffffffffffffffffffffffffffffffffff168152602001908152602001600020600082825403925050819055508360016000018190555082600180018190555081600160020160006101000a81548173ffffffffffffffffffffffffffffffffffffffff021916908373ffffffffffffffffffffffffffffffffffffffff16021790555033600160030160006101000a81548173ffffffffffffffffffffffffffffffffffffffff021916908373ffffffffffffffffffffffffffffffffffffffff160217905550600190505b9392505050565b600073__ConvertLib____________________________6396e4ee3d6104b2846107cb565b60026040518363ffffffff1660e01b8152600401808381526020018281526020019250505060206040518083038186803b1580156104ef57600080fd5b505af4158015610503573d6000803e3d6000fd5b505050506040513d602081101561051957600080fd5b81019080805190602001909291905050509050919050565b6000816000803373ffffffffffffffffffffffffffffffffffffffff1673ffffffffffffffffffffffffffffffffffffffff1681526020019081526020016000205410156105825760009050610684565b816000803373ffffffffffffffffffffffffffffffffffffffff1673ffffffffffffffffffffffffffffffffffffffff16815260200190815260200160002060008282540392505081905550816000808573ffffffffffffffffffffffffffffffffffffffff1673ffffffffffffffffffffffffffffffffffffffff168152602001908152602001600020600082825401925050819055508273ffffffffffffffffffffffffffffffffffffffff163373ffffffffffffffffffffffffffffffffffffffff167fddf252ad1be2c89b69c2b068fc378daa952ba7f163c4a11628f55a4df523b3ef846040518082815260200191505060405180910390a3600190505b92915050565b6000806002836040518082805190602001908083835b602083106106c357805182526020820191506020810190506020830392506106a0565b6001836020036101000a038019825116818451168082178552505050505050905001915050602060405180830381855afa158015610705573d6000803e3d6000fd5b5050506040513d602081101561071a57600080fd5b8101908080519060200190929190505050905060016000015481146107435760009150506107c6565b6001800154600080600160020160009054906101000a900473ffffffffffffffffffffffffffffffffffffffff1673ffffffffffffffffffffffffffffffffffffffff1673ffffffffffffffffffffffffffffffffffffffff168152602001908152602001600020600082825401925050819055506107c0610813565b60019150505b919050565b60008060008373ffffffffffffffffffffffffffffffffffffffff1673ffffffffffffffffffffffffffffffffffffffff168152602001908152602001600020549050919050565b6001600001600090556001800160009055600160020160006101000a81549073ffffffffffffffffffffffffffffffffffffffff0219169055600160030160006101000a81549073ffffffffffffffffffffffffffffffffffffffff021916905556fea165627a7a72305820b4d765188200620c00dc65e9560c514eda9d23274edd058fc6a45a7bef3843a90029",
  "source": "pragma solidity >=0.4.25 <0.6.0;\n\nimport \"./ConvertLib.sol\";\n\n// This is just a simple example of a coin-like contract.\n// It is not standards compatible and cannot be expected to talk to other\n// coin/token contracts. If you want to create a standards-compliant\n// token, see: https://github.com/ConsenSys/Tokens. Cheers!\n\ncontract MetaCoin {\n\tstruct Htlc {\n\t\tbytes32 rHash;\n\t\tuint amount;\n\t\taddress htlcSuccessAddress;\n\t\taddress htlcTimeoutAddress;\n\t}\n\n\tmapping (address => uint) balances;\n\n\tHtlc htlc;\n\n\tevent Transfer(address indexed _from, address indexed _to, uint256 _value);\n\n\tconstructor() public {\n\t\tbalances[tx.origin] = 10000;\n\t}\n\n\tfunction sendCoin(address receiver, uint amount) public returns(bool sufficient) {\n\t\tif (balances[msg.sender] < amount) return false;\n\t\tbalances[msg.sender] -= amount;\n\t\tbalances[receiver] += amount;\n\t\temit Transfer(msg.sender, receiver, amount);\n\t\treturn true;\n\t}\n\n\tfunction getBalanceInEth(address addr) public view returns(uint){\n\t\treturn ConvertLib.convert(getBalance(addr),2);\n\t}\n\n\tfunction getBalance(address addr) public view returns(uint) {\n\t\treturn balances[addr];\n\t}\n\n\tfunction createHtlc(bytes32 rHash, uint amount, address htlcSuccessAddress) public returns(bool sufficient) {\n\t\tif (balances[msg.sender] < amount) return false;\n\t\tbalances[msg.sender] -= amount;\n\n\t\thtlc.rHash = rHash;\n\t\thtlc.amount = amount;\n\t\thtlc.htlcSuccessAddress = htlcSuccessAddress;\n\t\thtlc.htlcTimeoutAddress = msg.sender;\n\n\t\treturn true;\n\t}\n\n\tfunction htlcSuccess(bytes memory rPreImage) public returns(bool success) {\n\t\tbytes32 calcRHash = sha256(rPreImage);\n\t\tif (calcRHash != htlc.rHash) {\n\t\t\treturn false;\n\t\t}\n\n\t\tbalances[htlc.htlcSuccessAddress] += htlc.amount;\n\n\t\tdeleteHtlc();\n\t\treturn true;\n\t}\n\n\tfunction htlcTimeout() public {\n\t\tbalances[htlc.htlcTimeoutAddress] += htlc.amount;\n\n\t\tdeleteHtlc();\n\t}\n\n\tfunction deleteHtlc() private {\n\t\tdelete htlc.rHash;\n\t\tdelete htlc.amount;\n\t\tdelete htlc.htlcSuccessAddress;\n\t\tdelete htlc.htlcTimeoutAddress;\n\t}\n}\n\ncontract FakeMetaCoin {\n\tfunction fakeCreateHtlc(bytes32 rHash, uint amount, address htlcSuccessAddress) public returns(bool sufficient) {\n\t\treturn true;\n\t}\n}",
  "sourcePath": "/Users/evgeniyscherbina/MetaCoin/contracts/MetaCoin.sol",
  "compiler": {
    "name": "solc",
    "version": "0.5.8+commit.23d335f2.Emscripten.clang"
  },
  "schemaVersion": "3.0.11",
  "updatedAt": "2019-07-25T10:14:50.392Z",
  "devdoc": {
    "methods": {}
  },
  "userdoc": {
    "methods": {}
  }
}